{
  "contractName": "ExerciceSolution",
  "abi": [
    {
      "inputs": [],
      "stateMutability": "nonpayable",
      "type": "constructor"
    },
    {
      "anonymous": false,
      "inputs": [
        {
          "indexed": true,
          "internalType": "address",
          "name": "owner",
          "type": "address"
        },
        {
          "indexed": true,
          "internalType": "address",
          "name": "approved",
          "type": "address"
        },
        {
          "indexed": true,
          "internalType": "uint256",
          "name": "tokenId",
          "type": "uint256"
        }
      ],
      "name": "Approval",
      "type": "event"
    },
    {
      "anonymous": false,
      "inputs": [
        {
          "indexed": true,
          "internalType": "address",
          "name": "owner",
          "type": "address"
        },
        {
          "indexed": true,
          "internalType": "address",
          "name": "operator",
          "type": "address"
        },
        {
          "indexed": false,
          "internalType": "bool",
          "name": "approved",
          "type": "bool"
        }
      ],
      "name": "ApprovalForAll",
      "type": "event"
    },
    {
      "anonymous": false,
      "inputs": [
        {
          "indexed": true,
          "internalType": "address",
          "name": "from",
          "type": "address"
        },
        {
          "indexed": true,
          "internalType": "address",
          "name": "to",
          "type": "address"
        },
        {
          "indexed": true,
          "internalType": "uint256",
          "name": "tokenId",
          "type": "uint256"
        }
      ],
      "name": "Transfer",
      "type": "event"
    },
    {
      "inputs": [
        {
          "internalType": "address",
          "name": "",
          "type": "address"
        }
      ],
      "name": "allowBreeder",
      "outputs": [
        {
          "internalType": "bool",
          "name": "",
          "type": "bool"
        }
      ],
      "stateMutability": "view",
      "type": "function",
      "constant": true
    },
    {
      "inputs": [
        {
          "internalType": "uint256",
          "name": "",
          "type": "uint256"
        }
      ],
      "name": "animals",
      "outputs": [
        {
          "internalType": "uint256",
          "name": "sex",
          "type": "uint256"
        },
        {
          "internalType": "uint256",
          "name": "legs",
          "type": "uint256"
        },
        {
          "internalType": "bool",
          "name": "wings",
          "type": "bool"
        },
        {
          "internalType": "string",
          "name": "name",
          "type": "string"
        }
      ],
      "stateMutability": "view",
      "type": "function",
      "constant": true
    },
    {
      "inputs": [
        {
          "internalType": "address",
          "name": "to",
          "type": "address"
        },
        {
          "internalType": "uint256",
          "name": "tokenId",
          "type": "uint256"
        }
      ],
      "name": "approve",
      "outputs": [],
      "stateMutability": "nonpayable",
      "type": "function"
    },
    {
      "inputs": [
        {
          "internalType": "address",
          "name": "owner",
          "type": "address"
        }
      ],
      "name": "balanceOf",
      "outputs": [
        {
          "internalType": "uint256",
          "name": "",
          "type": "uint256"
        }
      ],
      "stateMutability": "view",
      "type": "function",
      "constant": true
    },
    {
      "inputs": [],
      "name": "baseURI",
      "outputs": [
        {
          "internalType": "string",
          "name": "",
          "type": "string"
        }
      ],
      "stateMutability": "view",
      "type": "function",
      "constant": true
    },
    {
      "inputs": [
        {
          "internalType": "uint256",
          "name": "tokenId",
          "type": "uint256"
        }
      ],
      "name": "getApproved",
      "outputs": [
        {
          "internalType": "address",
          "name": "",
          "type": "address"
        }
      ],
      "stateMutability": "view",
      "type": "function",
      "constant": true
    },
    {
      "inputs": [
        {
          "internalType": "address",
          "name": "owner",
          "type": "address"
        },
        {
          "internalType": "address",
          "name": "operator",
          "type": "address"
        }
      ],
      "name": "isApprovedForAll",
      "outputs": [
        {
          "internalType": "bool",
          "name": "",
          "type": "bool"
        }
      ],
      "stateMutability": "view",
      "type": "function",
      "constant": true
    },
    {
      "inputs": [],
      "name": "name",
      "outputs": [
        {
          "internalType": "string",
          "name": "",
          "type": "string"
        }
      ],
      "stateMutability": "view",
      "type": "function",
      "constant": true
    },
    {
      "inputs": [
        {
          "internalType": "uint256",
          "name": "tokenId",
          "type": "uint256"
        }
      ],
      "name": "ownerOf",
      "outputs": [
        {
          "internalType": "address",
          "name": "",
          "type": "address"
        }
      ],
      "stateMutability": "view",
      "type": "function",
      "constant": true
    },
    {
      "inputs": [
        {
          "internalType": "address",
          "name": "from",
          "type": "address"
        },
        {
          "internalType": "address",
          "name": "to",
          "type": "address"
        },
        {
          "internalType": "uint256",
          "name": "tokenId",
          "type": "uint256"
        }
      ],
      "name": "safeTransferFrom",
      "outputs": [],
      "stateMutability": "nonpayable",
      "type": "function"
    },
    {
      "inputs": [
        {
          "internalType": "address",
          "name": "from",
          "type": "address"
        },
        {
          "internalType": "address",
          "name": "to",
          "type": "address"
        },
        {
          "internalType": "uint256",
          "name": "tokenId",
          "type": "uint256"
        },
        {
          "internalType": "bytes",
          "name": "_data",
          "type": "bytes"
        }
      ],
      "name": "safeTransferFrom",
      "outputs": [],
      "stateMutability": "nonpayable",
      "type": "function"
    },
    {
      "inputs": [
        {
          "internalType": "address",
          "name": "operator",
          "type": "address"
        },
        {
          "internalType": "bool",
          "name": "approved",
          "type": "bool"
        }
      ],
      "name": "setApprovalForAll",
      "outputs": [],
      "stateMutability": "nonpayable",
      "type": "function"
    },
    {
      "inputs": [
        {
          "internalType": "bytes4",
          "name": "interfaceId",
          "type": "bytes4"
        }
      ],
      "name": "supportsInterface",
      "outputs": [
        {
          "internalType": "bool",
          "name": "",
          "type": "bool"
        }
      ],
      "stateMutability": "view",
      "type": "function",
      "constant": true
    },
    {
      "inputs": [],
      "name": "symbol",
      "outputs": [
        {
          "internalType": "string",
          "name": "",
          "type": "string"
        }
      ],
      "stateMutability": "view",
      "type": "function",
      "constant": true
    },
    {
      "inputs": [
        {
          "internalType": "uint256",
          "name": "index",
          "type": "uint256"
        }
      ],
      "name": "tokenByIndex",
      "outputs": [
        {
          "internalType": "uint256",
          "name": "",
          "type": "uint256"
        }
      ],
      "stateMutability": "view",
      "type": "function",
      "constant": true
    },
    {
      "inputs": [
        {
          "internalType": "uint256",
          "name": "tokenId",
          "type": "uint256"
        }
      ],
      "name": "tokenURI",
      "outputs": [
        {
          "internalType": "string",
          "name": "",
          "type": "string"
        }
      ],
      "stateMutability": "view",
      "type": "function",
      "constant": true
    },
    {
      "inputs": [],
      "name": "totalSupply",
      "outputs": [
        {
          "internalType": "uint256",
          "name": "",
          "type": "uint256"
        }
      ],
      "stateMutability": "view",
      "type": "function",
      "constant": true
    },
    {
      "inputs": [
        {
          "internalType": "address",
          "name": "from",
          "type": "address"
        },
        {
          "internalType": "address",
          "name": "to",
          "type": "address"
        },
        {
          "internalType": "uint256",
          "name": "tokenId",
          "type": "uint256"
        }
      ],
      "name": "transferFrom",
      "outputs": [],
      "stateMutability": "nonpayable",
      "type": "function"
    },
    {
      "inputs": [
        {
          "internalType": "address",
          "name": "account",
          "type": "address"
        }
      ],
      "name": "isBreeder",
      "outputs": [
        {
          "internalType": "bool",
          "name": "",
          "type": "bool"
        }
      ],
      "stateMutability": "nonpayable",
      "type": "function"
    },
    {
      "inputs": [],
      "name": "registrationPrice",
      "outputs": [
        {
          "internalType": "uint256",
          "name": "",
          "type": "uint256"
        }
      ],
      "stateMutability": "nonpayable",
      "type": "function"
    },
    {
      "inputs": [],
      "name": "registerMeAsBreeder",
      "outputs": [],
      "stateMutability": "payable",
      "type": "function",
      "payable": true
    },
    {
      "inputs": [
        {
          "internalType": "uint256",
          "name": "sex",
          "type": "uint256"
        },
        {
          "internalType": "uint256",
          "name": "legs",
          "type": "uint256"
        },
        {
          "internalType": "bool",
          "name": "wings",
          "type": "bool"
        },
        {
          "internalType": "string",
          "name": "name",
          "type": "string"
        }
      ],
      "name": "declareAnimal",
      "outputs": [
        {
          "internalType": "uint256",
          "name": "",
          "type": "uint256"
        }
      ],
      "stateMutability": "nonpayable",
      "type": "function"
    },
    {
      "inputs": [
        {
          "internalType": "uint256",
          "name": "animalNumber",
          "type": "uint256"
        }
      ],
      "name": "getAnimalCharacteristics",
      "outputs": [
        {
          "internalType": "string",
          "name": "_name",
          "type": "string"
        },
        {
          "internalType": "bool",
          "name": "_wings",
          "type": "bool"
        },
        {
          "internalType": "uint256",
          "name": "_legs",
          "type": "uint256"
        },
        {
          "internalType": "uint256",
          "name": "_sex",
          "type": "uint256"
        }
      ],
      "stateMutability": "nonpayable",
      "type": "function"
    },
    {
      "inputs": [
        {
          "internalType": "uint256",
          "name": "animalNumber",
          "type": "uint256"
        }
      ],
      "name": "declareDeadAnimal",
      "outputs": [],
      "stateMutability": "nonpayable",
      "type": "function"
    },
    {
      "inputs": [
        {
          "internalType": "address",
          "name": "owner",
          "type": "address"
        },
        {
          "internalType": "uint256",
          "name": "index",
          "type": "uint256"
        }
      ],
      "name": "tokenOfOwnerByIndex",
      "outputs": [
        {
          "internalType": "uint256",
          "name": "",
          "type": "uint256"
        }
      ],
      "stateMutability": "view",
      "type": "function",
      "constant": true
    },
    {
      "inputs": [
        {
          "internalType": "uint256",
          "name": "animalNumber",
          "type": "uint256"
        }
      ],
      "name": "isAnimalForSale",
      "outputs": [
        {
          "internalType": "bool",
          "name": "",
          "type": "bool"
        }
      ],
      "stateMutability": "view",
      "type": "function",
      "constant": true
    },
    {
      "inputs": [
        {
          "internalType": "uint256",
          "name": "animalNumber",
          "type": "uint256"
        }
      ],
      "name": "animalPrice",
      "outputs": [
        {
          "internalType": "uint256",
          "name": "",
          "type": "uint256"
        }
      ],
      "stateMutability": "view",
      "type": "function",
      "constant": true
    },
    {
      "inputs": [
        {
          "internalType": "uint256",
          "name": "animalNumber",
          "type": "uint256"
        }
      ],
      "name": "buyAnimal",
      "outputs": [],
      "stateMutability": "payable",
      "type": "function",
      "payable": true
    },
    {
      "inputs": [
        {
          "internalType": "uint256",
          "name": "animalNumber",
          "type": "uint256"
        },
        {
          "internalType": "uint256",
          "name": "price",
          "type": "uint256"
        }
      ],
      "name": "offerForSale",
      "outputs": [],
      "stateMutability": "nonpayable",
      "type": "function"
    },
    {
      "inputs": [
        {
          "internalType": "uint256",
          "name": "sex",
          "type": "uint256"
        },
        {
          "internalType": "uint256",
          "name": "legs",
          "type": "uint256"
        },
        {
          "internalType": "bool",
          "name": "wings",
          "type": "bool"
        },
        {
          "internalType": "string",
          "name": "name",
          "type": "string"
        },
        {
          "internalType": "uint256",
          "name": "parent1",
          "type": "uint256"
        },
        {
          "internalType": "uint256",
          "name": "parent2",
          "type": "uint256"
        }
      ],
      "name": "declareAnimalWithParents",
      "outputs": [
        {
          "internalType": "uint256",
          "name": "",
          "type": "uint256"
        }
      ],
      "stateMutability": "nonpayable",
      "type": "function"
    },
    {
      "inputs": [
        {
          "internalType": "uint256",
          "name": "animalNumber",
          "type": "uint256"
        }
      ],
      "name": "getParents",
      "outputs": [
        {
          "internalType": "uint256",
          "name": "",
          "type": "uint256"
        },
        {
          "internalType": "uint256",
          "name": "",
          "type": "uint256"
        }
      ],
      "stateMutability": "nonpayable",
      "type": "function"
    },
    {
      "inputs": [
        {
          "internalType": "uint256",
          "name": "animalNumber",
          "type": "uint256"
        }
      ],
      "name": "canReproduce",
      "outputs": [
        {
          "internalType": "bool",
          "name": "",
          "type": "bool"
        }
      ],
      "stateMutability": "nonpayable",
      "type": "function"
    },
    {
      "inputs": [
        {
          "internalType": "uint256",
          "name": "animalNumber",
          "type": "uint256"
        }
      ],
      "name": "reproductionPrice",
      "outputs": [
        {
          "internalType": "uint256",
          "name": "",
          "type": "uint256"
        }
      ],
      "stateMutability": "view",
      "type": "function",
      "constant": true
    },
    {
      "inputs": [
        {
          "internalType": "uint256",
          "name": "animalNumber",
          "type": "uint256"
        },
        {
          "internalType": "uint256",
          "name": "priceOfReproduction",
          "type": "uint256"
        }
      ],
      "name": "offerForReproduction",
      "outputs": [
        {
          "internalType": "uint256",
          "name": "",
          "type": "uint256"
        }
      ],
      "stateMutability": "nonpayable",
      "type": "function"
    },
    {
      "inputs": [
        {
          "internalType": "uint256",
          "name": "animalNumber",
          "type": "uint256"
        }
      ],
      "name": "authorizedBreederToReproduce",
      "outputs": [
        {
          "internalType": "address",
          "name": "",
          "type": "address"
        }
      ],
      "stateMutability": "nonpayable",
      "type": "function"
    },
    {
      "inputs": [
        {
          "internalType": "uint256",
          "name": "animalNumber",
          "type": "uint256"
        }
      ],
      "name": "payForReproduction",
      "outputs": [],
      "stateMutability": "payable",
      "type": "function",
      "payable": true
    }
  ],
  "bytecode": "0x60806040523480156200001157600080fd5b506040518060400160405280600581526020017f416c4e66740000000000000000000000000000000000000000000000000000008152506040518060400160405280600381526020017f4146540000000000000000000000000000000000000000000000000000000000815250620000966301ffc9a760e01b6200024460201b60201c565b8160069080519060200190620000ae929190620007aa565b508060079080519060200190620000c7929190620007aa565b50620000e06380ac58cd60e01b6200024460201b60201c565b620000f8635b5e139f60e01b6200024460201b60201c565b6200011063780e9d6360e01b6200024460201b60201c565b50506200013e7304a02eb067d6cdc7e4f4c1b112456c94ec38dd4060006200034d60201b620027f01760201c565b6200016a7340adc5976f6ae451dbf9a390d31c7ffb5366b22960016200034d60201b620027f01760201c565b6000600b60007304a02eb067d6cdc7e4f4c1b112456c94ec38dd4073ffffffffffffffffffffffffffffffffffffffff1673ffffffffffffffffffffffffffffffffffffffff1681526020019081526020016000206000808152602001908152602001600020819055506001600b60007340adc5976f6ae451dbf9a390d31c7ffb5366b22973ffffffffffffffffffffffffffffffffffffffff1673ffffffffffffffffffffffffffffffffffffffff16815260200190815260200160002060008081526020019081526020016000208190555062000859565b63ffffffff60e01b817bffffffffffffffffffffffffffffffffffffffffffffffffffffffff19161415620002e1576040517f08c379a000000000000000000000000000000000000000000000000000000000815260040180806020018281038252601c8152602001807f4552433136353a20696e76616c696420696e746572666163652069640000000081525060200191505060405180910390fd5b6001600080837bffffffffffffffffffffffffffffffffffffffffffffffffffffffff19167bffffffffffffffffffffffffffffffffffffffffffffffffffffffff1916815260200190815260200160002060006101000a81548160ff02191690831515021790555050565b600073ffffffffffffffffffffffffffffffffffffffff168273ffffffffffffffffffffffffffffffffffffffff161415620003f1576040517f08c379a00000000000000000000000000000000000000000000000000000000081526004018080602001828103825260208152602001807f4552433732313a206d696e7420746f20746865207a65726f206164647265737381525060200191505060405180910390fd5b62000402816200056160201b60201c565b1562000476576040517f08c379a000000000000000000000000000000000000000000000000000000000815260040180806020018281038252601c8152602001807f4552433732313a20746f6b656e20616c7265616479206d696e7465640000000081525060200191505060405180910390fd5b6200048a600083836200058560201b60201c565b620004e281600160008573ffffffffffffffffffffffffffffffffffffffff1673ffffffffffffffffffffffffffffffffffffffff1681526020019081526020016000206200058a60201b62002d6d1790919060201c565b506200050081836002620005ac60201b62002d87179092919060201c565b50808273ffffffffffffffffffffffffffffffffffffffff16600073ffffffffffffffffffffffffffffffffffffffff167fddf252ad1be2c89b69c2b068fc378daa952ba7f163c4a11628f55a4df523b3ef60405160405180910390a45050565b60006200057e826002620005e960201b62002d231790919060201c565b9050919050565b505050565b6000620005a4836000018360001b6200060b60201b60201c565b905092915050565b6000620005e0846000018460001b8473ffffffffffffffffffffffffffffffffffffffff1660001b6200068560201b60201c565b90509392505050565b600062000603836000018360001b6200076460201b60201c565b905092915050565b60006200061f83836200078760201b60201c565b6200067a5782600001829080600181540180825580915050600190039060005260206000200160009091909190915055826000018054905083600101600084815260200190815260200160002081905550600190506200067f565b600090505b92915050565b60008084600101600085815260200190815260200160002054905060008114156200072e578460000160405180604001604052808681526020018581525090806001815401808255809150506001900390600052602060002090600202016000909190919091506000820151816000015560208201518160010155505084600001805490508560010160008681526020019081526020016000208190555060019150506200075d565b828560000160018303815481106200074257fe5b90600052602060002090600202016001018190555060009150505b9392505050565b600080836001016000848152602001908152602001600020541415905092915050565b600080836001016000848152602001908152602001600020541415905092915050565b828054600181600116156101000203166002900490600052602060002090601f016020900481019282601f10620007ed57805160ff19168380011785556200081e565b828001600101855582156200081e579182015b828111156200081d57825182559160200191906001019062000800565b5b5090506200082d919062000831565b5090565b6200085691905b808211156200085257600081600090555060010162000838565b5090565b90565b613bbc80620008696000396000f3fe60806040526004361061020f5760003560e01c80634f6ccce711610118578063a22cb465116100a0578063c7b9cb0b1161006f578063c7b9cb0b14610fdb578063c87b56dd14611044578063e985e9c5146110f8578063ec89777214611181578063ff36ed98146111bc5761020f565b8063a22cb46514610d4c578063b75e075014610da9578063b88d4fde14610e76578063c5f51f7314610f885761020f565b806377386df3116100e757806377386df314610a83578063929c13e314610ac857806395d89b4114610b96578063998dd3ca14610c26578063a0c32c8f14610cf35761020f565b80634f6ccce7146108c45780636352211e146109135780636c0360eb1461098e57806370a0823114610a1e5761020f565b8063242a00871161019b57806332b0f3761161016a57806332b0f376146106e35780633573dbd11461079d57806341d30bae146107ec57806342842e0e146107f65780634abda8c8146108715761020f565b8063242a00871461055457806327aa8f31146105aa5780632a4672b2146106255780632f745c59146106745761020f565b806318160ddd116101e257806318160ddd146103ec5780631a14e94a146104175780631d5e6fdc1461044557806321658658146104ae57806323b872dd146104d95761020f565b806301ffc9a71461021457806306fdde0314610286578063081812fc14610316578063095ea7b314610391575b600080fd5b34801561022057600080fd5b5061026c6004803603602081101561023757600080fd5b8101908080357bffffffffffffffffffffffffffffffffffffffffffffffffffffffff191690602001909291905050506111ea565b604051808215151515815260200191505060405180910390f35b34801561029257600080fd5b5061029b611251565b6040518080602001828103825283818151815260200191508051906020019080838360005b838110156102db5780820151818401526020810190506102c0565b50505050905090810190601f1680156103085780820380516001836020036101000a031916815260200191505b509250505060405180910390f35b34801561032257600080fd5b5061034f6004803603602081101561033957600080fd5b81019080803590602001909291905050506112f3565b604051808273ffffffffffffffffffffffffffffffffffffffff1673ffffffffffffffffffffffffffffffffffffffff16815260200191505060405180910390f35b34801561039d57600080fd5b506103ea600480360360408110156103b457600080fd5b81019080803573ffffffffffffffffffffffffffffffffffffffff1690602001909291908035906020019092919050505061138e565b005b3480156103f857600080fd5b506104016114d2565b6040518082815260200191505060405180910390f35b6104436004803603602081101561042d57600080fd5b81019080803590602001909291905050506114e3565b005b34801561045157600080fd5b506104946004803603602081101561046857600080fd5b81019080803573ffffffffffffffffffffffffffffffffffffffff1690602001909291905050506114e6565b604051808215151515815260200191505060405180910390f35b3480156104ba57600080fd5b506104c3611506565b6040518082815260200191505060405180910390f35b3480156104e557600080fd5b50610552600480360360608110156104fc57600080fd5b81019080803573ffffffffffffffffffffffffffffffffffffffff169060200190929190803573ffffffffffffffffffffffffffffffffffffffff1690602001909291908035906020019092919050505061150f565b005b34801561056057600080fd5b5061058d6004803603602081101561057757600080fd5b8101908080359060200190929190505050611585565b604051808381526020018281526020019250505060405180910390f35b3480156105b657600080fd5b506105e3600480360360208110156105cd57600080fd5b810190808035906020019092919050505061159a565b604051808273ffffffffffffffffffffffffffffffffffffffff1673ffffffffffffffffffffffffffffffffffffffff16815260200191505060405180910390f35b34801561063157600080fd5b5061065e6004803603602081101561064857600080fd5b81019080803590602001909291905050506115a6565b6040518082815260200191505060405180910390f35b34801561068057600080fd5b506106cd6004803603604081101561069757600080fd5b81019080803573ffffffffffffffffffffffffffffffffffffffff169060200190929190803590602001909291905050506115b1565b6040518082815260200191505060405180910390f35b3480156106ef57600080fd5b506107876004803603608081101561070657600080fd5b8101908080359060200190929190803590602001909291908035151590602001909291908035906020019064010000000081111561074357600080fd5b82018360208201111561075557600080fd5b8035906020019184600183028401116401000000008311171561077757600080fd5b909192939192939050505061160c565b6040518082815260200191505060405180910390f35b3480156107a957600080fd5b506107d6600480360360208110156107c057600080fd5b810190808035906020019092919050505061175f565b6040518082815260200191505060405180910390f35b6107f461176a565b005b34801561080257600080fd5b5061086f6004803603606081101561081957600080fd5b81019080803573ffffffffffffffffffffffffffffffffffffffff169060200190929190803573ffffffffffffffffffffffffffffffffffffffff169060200190929190803590602001909291905050506117d1565b005b34801561087d57600080fd5b506108aa6004803603602081101561089457600080fd5b81019080803590602001909291905050506117f1565b604051808215151515815260200191505060405180910390f35b3480156108d057600080fd5b506108fd600480360360208110156108e757600080fd5b81019080803590602001909291905050506117fc565b6040518082815260200191505060405180910390f35b34801561091f57600080fd5b5061094c6004803603602081101561093657600080fd5b810190808035906020019092919050505061181f565b604051808273ffffffffffffffffffffffffffffffffffffffff1673ffffffffffffffffffffffffffffffffffffffff16815260200191505060405180910390f35b34801561099a57600080fd5b506109a3611856565b6040518080602001828103825283818151815260200191508051906020019080838360005b838110156109e35780820151818401526020810190506109c8565b50505050905090810190601f168015610a105780820380516001836020036101000a031916815260200191505b509250505060405180910390f35b348015610a2a57600080fd5b50610a6d60048036036020811015610a4157600080fd5b81019080803573ffffffffffffffffffffffffffffffffffffffff1690602001909291905050506118f8565b6040518082815260200191505060405180910390f35b348015610a8f57600080fd5b50610ac660048036036040811015610aa657600080fd5b8101908080359060200190929190803590602001909291905050506119cd565b005b348015610ad457600080fd5b50610b80600480360360c0811015610aeb57600080fd5b81019080803590602001909291908035906020019092919080351515906020019092919080359060200190640100000000811115610b2857600080fd5b820183602082011115610b3a57600080fd5b80359060200191846001830284011164010000000083111715610b5c57600080fd5b909192939192939080359060200190929190803590602001909291905050506119d1565b6040518082815260200191505060405180910390f35b348015610ba257600080fd5b50610bab6119e2565b6040518080602001828103825283818151815260200191508051906020019080838360005b83811015610beb578082015181840152602081019050610bd0565b50505050905090810190601f168015610c185780820380516001836020036101000a031916815260200191505b509250505060405180910390f35b348015610c3257600080fd5b50610c5f60048036036020811015610c4957600080fd5b8101908080359060200190929190505050611a84565b604051808581526020018481526020018315151515815260200180602001828103825283818151815260200191508051906020019080838360005b83811015610cb5578082015181840152602081019050610c9a565b50505050905090810190601f168015610ce25780820380516001836020036101000a031916815260200191505b509550505050505060405180910390f35b348015610cff57600080fd5b50610d3660048036036040811015610d1657600080fd5b810190808035906020019092919080359060200190929190505050611b59565b6040518082815260200191505060405180910390f35b348015610d5857600080fd5b50610da760048036036040811015610d6f57600080fd5b81019080803573ffffffffffffffffffffffffffffffffffffffff169060200190929190803515159060200190929190505050611b65565b005b348015610db557600080fd5b50610de260048036036020811015610dcc57600080fd5b8101908080359060200190929190505050611d1d565b604051808060200185151515158152602001848152602001838152602001828103825286818151815260200191508051906020019080838360005b83811015610e38578082015181840152602081019050610e1d565b50505050905090810190601f168015610e655780820380516001836020036101000a031916815260200191505b509550505050505060405180910390f35b348015610e8257600080fd5b50610f8660048036036080811015610e9957600080fd5b81019080803573ffffffffffffffffffffffffffffffffffffffff169060200190929190803573ffffffffffffffffffffffffffffffffffffffff1690602001909291908035906020019092919080359060200190640100000000811115610f0057600080fd5b820183602082011115610f1257600080fd5b80359060200191846001830284011164010000000083111715610f3457600080fd5b91908080601f016020809104026020016040519081016040528093929190818152602001838380828437600081840152601f19601f820116905080830192505050505050509192919290505050611e40565b005b348015610f9457600080fd5b50610fc160048036036020811015610fab57600080fd5b8101908080359060200190929190505050611eb8565b604051808215151515815260200191505060405180910390f35b348015610fe757600080fd5b5061102a60048036036020811015610ffe57600080fd5b81019080803573ffffffffffffffffffffffffffffffffffffffff169060200190929190505050611ec3565b604051808215151515815260200191505060405180910390f35b34801561105057600080fd5b5061107d6004803603602081101561106757600080fd5b8101908080359060200190929190505050611f71565b6040518080602001828103825283818151815260200191508051906020019080838360005b838110156110bd5780820151818401526020810190506110a2565b50505050905090810190601f1680156110ea5780820380516001836020036101000a031916815260200191505b509250505060405180910390f35b34801561110457600080fd5b506111676004803603604081101561111b57600080fd5b81019080803573ffffffffffffffffffffffffffffffffffffffff169060200190929190803573ffffffffffffffffffffffffffffffffffffffff169060200190929190505050612242565b604051808215151515815260200191505060405180910390f35b34801561118d57600080fd5b506111ba600480360360208110156111a457600080fd5b81019080803590602001909291905050506122d6565b005b6111e8600480360360208110156111d257600080fd5b81019080803590602001909291905050506123c3565b005b6000806000837bffffffffffffffffffffffffffffffffffffffffffffffffffffffff19167bffffffffffffffffffffffffffffffffffffffffffffffffffffffff1916815260200190815260200160002060009054906101000a900460ff169050919050565b606060068054600181600116156101000203166002900480601f0160208091040260200160405190810160405280929190818152602001828054600181600116156101000203166002900480156112e95780601f106112be576101008083540402835291602001916112e9565b820191906000526020600020905b8154815290600101906020018083116112cc57829003601f168201915b5050505050905090565b60006112fe826123c6565b611353576040517f08c379a000000000000000000000000000000000000000000000000000000000815260040180806020018281038252602c815260200180613ab1602c913960400191505060405180910390fd5b6004600083815260200190815260200160002060009054906101000a900473ffffffffffffffffffffffffffffffffffffffff169050919050565b60006113998261181f565b90508073ffffffffffffffffffffffffffffffffffffffff168373ffffffffffffffffffffffffffffffffffffffff161415611420576040517f08c379a0000000000000000000000000000000000000000000000000000000008152600401808060200182810382526021815260200180613b356021913960400191505060405180910390fd5b8073ffffffffffffffffffffffffffffffffffffffff1661143f6123e3565b73ffffffffffffffffffffffffffffffffffffffff16148061146e575061146d816114686123e3565b612242565b5b6114c3576040517f08c379a0000000000000000000000000000000000000000000000000000000008152600401808060200182810382526038815260200180613a046038913960400191505060405180910390fd5b6114cd83836123eb565b505050565b60006114de60026124a4565b905090565b50565b600a6020528060005260406000206000915054906101000a900460ff1681565b60006001905090565b61152061151a6123e3565b826124b9565b611575576040517f08c379a0000000000000000000000000000000000000000000000000000000008152600401808060200182810382526031815260200180613b566031913960400191505060405180910390fd5b6115808383836125ad565b505050565b60008060018081915080905091509150915091565b60008080915050919050565b600060019050919050565b6000600b60008473ffffffffffffffffffffffffffffffffffffffff1673ffffffffffffffffffffffffffffffffffffffff168152602001908152602001600020600083815260200190815260200160002054905092915050565b600060011515600a60003373ffffffffffffffffffffffffffffffffffffffff1673ffffffffffffffffffffffffffffffffffffffff16815260200190815260200160002060009054906101000a900460ff1615151461166b57600080fd5b600060016116776114d2565b0190506040518060800160405280888152602001878152602001861515815260200185858080601f016020809104026020016040519081016040528093929190818152602001838380828437600081840152601f19601f82011690508083019250505050505050815250600c6000838152602001908152602001600020600082015181600001556020820151816001015560408201518160020160006101000a81548160ff02191690831515021790555060608201518160030190805190602001906117449291906137ee565b5090505061175233826127f0565b8091505095945050505050565b600060019050919050565b6001341461177757600080fd5b6001600a60003373ffffffffffffffffffffffffffffffffffffffff1673ffffffffffffffffffffffffffffffffffffffff16815260200190815260200160002060006101000a81548160ff021916908315150217905550565b6117ec83838360405180602001604052806000815250611e40565b505050565b600060019050919050565b6000806118138360026129e490919063ffffffff16565b50905080915050919050565b600061184f82604051806060016040528060298152602001613a66602991396002612a139092919063ffffffff16565b9050919050565b606060098054600181600116156101000203166002900480601f0160208091040260200160405190810160405280929190818152602001828054600181600116156101000203166002900480156118ee5780601f106118c3576101008083540402835291602001916118ee565b820191906000526020600020905b8154815290600101906020018083116118d157829003601f168201915b5050505050905090565b60008073ffffffffffffffffffffffffffffffffffffffff168273ffffffffffffffffffffffffffffffffffffffff16141561197f576040517f08c379a000000000000000000000000000000000000000000000000000000000815260040180806020018281038252602a815260200180613a3c602a913960400191505060405180910390fd5b6119c6600160008473ffffffffffffffffffffffffffffffffffffffff1673ffffffffffffffffffffffffffffffffffffffff168152602001908152602001600020612a32565b9050919050565b5050565b600060019050979650505050505050565b606060078054600181600116156101000203166002900480601f016020809104026020016040519081016040528092919081815260200182805460018160011615610100020316600290048015611a7a5780601f10611a4f57610100808354040283529160200191611a7a565b820191906000526020600020905b815481529060010190602001808311611a5d57829003601f168201915b5050505050905090565b600c6020528060005260406000206000915090508060000154908060010154908060020160009054906101000a900460ff1690806003018054600181600116156101000203166002900480601f016020809104026020016040519081016040528092919081815260200182805460018160011615610100020316600290048015611b4f5780601f10611b2457610100808354040283529160200191611b4f565b820191906000526020600020905b815481529060010190602001808311611b3257829003601f168201915b5050505050905084565b60006001905092915050565b611b6d6123e3565b73ffffffffffffffffffffffffffffffffffffffff168273ffffffffffffffffffffffffffffffffffffffff161415611c0e576040517f08c379a00000000000000000000000000000000000000000000000000000000081526004018080602001828103825260198152602001807f4552433732313a20617070726f766520746f2063616c6c65720000000000000081525060200191505060405180910390fd5b8060056000611c1b6123e3565b73ffffffffffffffffffffffffffffffffffffffff1673ffffffffffffffffffffffffffffffffffffffff16815260200190815260200160002060008473ffffffffffffffffffffffffffffffffffffffff1673ffffffffffffffffffffffffffffffffffffffff16815260200190815260200160002060006101000a81548160ff0219169083151502179055508173ffffffffffffffffffffffffffffffffffffffff16611cc86123e3565b73ffffffffffffffffffffffffffffffffffffffff167f17307eab39ab6107e8899845ad3d59bd9653f200f220920489ca2b5937696c3183604051808215151515815260200191505060405180910390a35050565b60606000806000600c60008681526020019081526020016000206003018054600181600116156101000203166002900480601f016020809104026020016040519081016040528092919081815260200182805460018160011615610100020316600290048015611dce5780601f10611da357610100808354040283529160200191611dce565b820191906000526020600020905b815481529060010190602001808311611db157829003601f168201915b50505050509350600c600086815260200190815260200160002060020160009054906101000a900460ff169250600c6000868152602001908152602001600020600101549150600c60008681526020019081526020016000206000015490508383838393509350935093509193509193565b611e51611e4b6123e3565b836124b9565b611ea6576040517f08c379a0000000000000000000000000000000000000000000000000000000008152600401808060200182810382526031815260200180613b566031913960400191505060405180910390fd5b611eb284848484612a47565b50505050565b600060019050919050565b60006001600a60008473ffffffffffffffffffffffffffffffffffffffff1673ffffffffffffffffffffffffffffffffffffffff16815260200190815260200160002060006101000a81548160ff021916908315150217905550600a60008373ffffffffffffffffffffffffffffffffffffffff1673ffffffffffffffffffffffffffffffffffffffff16815260200190815260200160002060009054906101000a900460ff169050919050565b6060611f7c826123c6565b611fd1576040517f08c379a000000000000000000000000000000000000000000000000000000000815260040180806020018281038252602f815260200180613b06602f913960400191505060405180910390fd5b6060600860008481526020019081526020016000208054600181600116156101000203166002900480601f01602080910402602001604051908101604052809291908181526020018280546001816001161561010002031660029004801561207a5780601f1061204f5761010080835404028352916020019161207a565b820191906000526020600020905b81548152906001019060200180831161205d57829003601f168201915b50505050509050606061208b611856565b90506000815114156120a157819250505061223d565b6000825111156121725780826040516020018083805190602001908083835b602083106120e357805182526020820191506020810190506020830392506120c0565b6001836020036101000a03801982511681845116808217855250505050505090500182805190602001908083835b602083106121345780518252602082019150602081019050602083039250612111565b6001836020036101000a038019825116818451168082178552505050505050905001925050506040516020818303038152906040529250505061223d565b8061217c85612ab9565b6040516020018083805190602001908083835b602083106121b2578051825260208201915060208101905060208303925061218f565b6001836020036101000a03801982511681845116808217855250505050505090500182805190602001908083835b6020831061220357805182526020820191506020810190506020830392506121e0565b6001836020036101000a03801982511681845116808217855250505050505090500192505050604051602081830303815290604052925050505b919050565b6000600560008473ffffffffffffffffffffffffffffffffffffffff1673ffffffffffffffffffffffffffffffffffffffff16815260200190815260200160002060008373ffffffffffffffffffffffffffffffffffffffff1673ffffffffffffffffffffffffffffffffffffffff16815260200190815260200160002060009054906101000a900460ff16905092915050565b3373ffffffffffffffffffffffffffffffffffffffff166122f68261181f565b73ffffffffffffffffffffffffffffffffffffffff161461231657600080fd5b61231f81612be9565b60405180602001604052806000815250600c6000838152602001908152602001600020600301908051906020019061235892919061386e565b506000600c600083815260200190815260200160002060020160006101000a81548160ff0219169083151502179055506000600c6000838152602001908152602001600020600101819055506000600c60008381526020019081526020016000206000018190555050565b50565b60006123dc826002612d2390919063ffffffff16565b9050919050565b600033905090565b816004600083815260200190815260200160002060006101000a81548173ffffffffffffffffffffffffffffffffffffffff021916908373ffffffffffffffffffffffffffffffffffffffff160217905550808273ffffffffffffffffffffffffffffffffffffffff1661245e8361181f565b73ffffffffffffffffffffffffffffffffffffffff167f8c5be1e5ebec7d5bd14f71427d1e84f3dd0314c0f7b2291e5b200ac8c7c3b92560405160405180910390a45050565b60006124b282600001612d3d565b9050919050565b60006124c4826123c6565b612519576040517f08c379a000000000000000000000000000000000000000000000000000000000815260040180806020018281038252602c8152602001806139d8602c913960400191505060405180910390fd5b60006125248361181f565b90508073ffffffffffffffffffffffffffffffffffffffff168473ffffffffffffffffffffffffffffffffffffffff16148061259357508373ffffffffffffffffffffffffffffffffffffffff1661257b846112f3565b73ffffffffffffffffffffffffffffffffffffffff16145b806125a457506125a38185612242565b5b91505092915050565b8273ffffffffffffffffffffffffffffffffffffffff166125cd8261181f565b73ffffffffffffffffffffffffffffffffffffffff1614612639576040517f08c379a0000000000000000000000000000000000000000000000000000000008152600401808060200182810382526029815260200180613add6029913960400191505060405180910390fd5b600073ffffffffffffffffffffffffffffffffffffffff168273ffffffffffffffffffffffffffffffffffffffff1614156126bf576040517f08c379a000000000000000000000000000000000000000000000000000000000815260040180806020018281038252602481526020018061398e6024913960400191505060405180910390fd5b6126ca838383612d4e565b6126d56000826123eb565b61272681600160008673ffffffffffffffffffffffffffffffffffffffff1673ffffffffffffffffffffffffffffffffffffffff168152602001908152602001600020612d5390919063ffffffff16565b5061277881600160008573ffffffffffffffffffffffffffffffffffffffff1673ffffffffffffffffffffffffffffffffffffffff168152602001908152602001600020612d6d90919063ffffffff16565b5061278f81836002612d879092919063ffffffff16565b50808273ffffffffffffffffffffffffffffffffffffffff168473ffffffffffffffffffffffffffffffffffffffff167fddf252ad1be2c89b69c2b068fc378daa952ba7f163c4a11628f55a4df523b3ef60405160405180910390a4505050565b600073ffffffffffffffffffffffffffffffffffffffff168273ffffffffffffffffffffffffffffffffffffffff161415612893576040517f08c379a00000000000000000000000000000000000000000000000000000000081526004018080602001828103825260208152602001807f4552433732313a206d696e7420746f20746865207a65726f206164647265737381525060200191505060405180910390fd5b61289c816123c6565b1561290f576040517f08c379a000000000000000000000000000000000000000000000000000000000815260040180806020018281038252601c8152602001807f4552433732313a20746f6b656e20616c7265616479206d696e7465640000000081525060200191505060405180910390fd5b61291b60008383612d4e565b61296c81600160008573ffffffffffffffffffffffffffffffffffffffff1673ffffffffffffffffffffffffffffffffffffffff168152602001908152602001600020612d6d90919063ffffffff16565b5061298381836002612d879092919063ffffffff16565b50808273ffffffffffffffffffffffffffffffffffffffff16600073ffffffffffffffffffffffffffffffffffffffff167fddf252ad1be2c89b69c2b068fc378daa952ba7f163c4a11628f55a4df523b3ef60405160405180910390a45050565b6000806000806129f78660000186612dbc565b915091508160001c8160001c8090509350935050509250929050565b6000612a26846000018460001b84612e55565b60001c90509392505050565b6000612a4082600001612f4b565b9050919050565b612a528484846125ad565b612a5e84848484612f5c565b612ab3576040517f08c379a000000000000000000000000000000000000000000000000000000000815260040180806020018281038252603281526020018061395c6032913960400191505060405180910390fd5b50505050565b60606000821415612b01576040518060400160405280600181526020017f30000000000000000000000000000000000000000000000000000000000000008152509050612be4565b600082905060005b60008214612b2b578080600101915050600a8281612b2357fe5b049150612b09565b6060816040519080825280601f01601f191660200182016040528015612b605781602001600182028038833980820191505090505b50905060006001830390508593505b60008414612bdc57600a8481612b8157fe5b0660300160f81b82828060019003935081518110612b9b57fe5b60200101907effffffffffffffffffffffffffffffffffffffffffffffffffffffffffffff1916908160001a905350600a8481612bd457fe5b049350612b6f565b819450505050505b919050565b6000612bf48261181f565b9050612c0281600084612d4e565b612c0d6000836123eb565b60006008600084815260200190815260200160002080546001816001161561010002031660029004905014612c5c57600860008381526020019081526020016000206000612c5b91906138ee565b5b612cad82600160008473ffffffffffffffffffffffffffffffffffffffff1673ffffffffffffffffffffffffffffffffffffffff168152602001908152602001600020612d5390919063ffffffff16565b50612cc28260026131a190919063ffffffff16565b5081600073ffffffffffffffffffffffffffffffffffffffff168273ffffffffffffffffffffffffffffffffffffffff167fddf252ad1be2c89b69c2b068fc378daa952ba7f163c4a11628f55a4df523b3ef60405160405180910390a45050565b6000612d35836000018360001b6131bb565b905092915050565b600081600001805490509050919050565b505050565b6000612d65836000018360001b6131de565b905092915050565b6000612d7f836000018360001b6132c6565b905092915050565b6000612db3846000018460001b8473ffffffffffffffffffffffffffffffffffffffff1660001b613336565b90509392505050565b60008082846000018054905011612e1e576040517f08c379a0000000000000000000000000000000000000000000000000000000008152600401808060200182810382526022815260200180613a8f6022913960400191505060405180910390fd5b6000846000018481548110612e2f57fe5b906000526020600020906002020190508060000154816001015492509250509250929050565b60008084600101600085815260200190815260200160002054905060008114158390612f1c576040517f08c379a00000000000000000000000000000000000000000000000000000000081526004018080602001828103825283818151815260200191508051906020019080838360005b83811015612ee1578082015181840152602081019050612ec6565b50505050905090810190601f168015612f0e5780820380516001836020036101000a031916815260200191505b509250505060405180910390fd5b50846000016001820381548110612f2f57fe5b9060005260206000209060020201600101549150509392505050565b600081600001805490509050919050565b6000612f7d8473ffffffffffffffffffffffffffffffffffffffff16613412565b612f8a5760019050613199565b606061312063150b7a0260e01b612f9f6123e3565b888787604051602401808573ffffffffffffffffffffffffffffffffffffffff1673ffffffffffffffffffffffffffffffffffffffff1681526020018473ffffffffffffffffffffffffffffffffffffffff1673ffffffffffffffffffffffffffffffffffffffff16815260200183815260200180602001828103825283818151815260200191508051906020019080838360005b8381101561304f578082015181840152602081019050613034565b50505050905090810190601f16801561307c5780820380516001836020036101000a031916815260200191505b5095505050505050604051602081830303815290604052907bffffffffffffffffffffffffffffffffffffffffffffffffffffffff19166020820180517bffffffffffffffffffffffffffffffffffffffffffffffffffffffff838183161783525050505060405180606001604052806032815260200161395c603291398773ffffffffffffffffffffffffffffffffffffffff166134259092919063ffffffff16565b9050600081806020019051602081101561313957600080fd5b8101908080519060200190929190505050905063150b7a0260e01b7bffffffffffffffffffffffffffffffffffffffffffffffffffffffff1916817bffffffffffffffffffffffffffffffffffffffffffffffffffffffff191614925050505b949350505050565b60006131b3836000018360001b61343d565b905092915050565b600080836001016000848152602001908152602001600020541415905092915050565b600080836001016000848152602001908152602001600020549050600081146132ba576000600182039050600060018660000180549050039050600086600001828154811061322957fe5b906000526020600020015490508087600001848154811061324657fe5b906000526020600020018190555060018301876001016000838152602001908152602001600020819055508660000180548061327e57fe5b600190038181906000526020600020016000905590558660010160008781526020019081526020016000206000905560019450505050506132c0565b60009150505b92915050565b60006132d28383613556565b61332b578260000182908060018154018082558091505060019003906000526020600020016000909190919091505582600001805490508360010160008481526020019081526020016000208190555060019050613330565b600090505b92915050565b60008084600101600085815260200190815260200160002054905060008114156133dd5784600001604051806040016040528086815260200185815250908060018154018082558091505060019003906000526020600020906002020160009091909190915060008201518160000155602082015181600101555050846000018054905085600101600086815260200190815260200160002081905550600191505061340b565b828560000160018303815481106133f057fe5b90600052602060002090600202016001018190555060009150505b9392505050565b600080823b905060008111915050919050565b60606134348484600085613579565b90509392505050565b6000808360010160008481526020019081526020016000205490506000811461354a576000600182039050600060018660000180549050039050600086600001828154811061348857fe5b90600052602060002090600202019050808760000184815481106134a857fe5b90600052602060002090600202016000820154816000015560018201548160010155905050600183018760010160008360000154815260200190815260200160002081905550866000018054806134fb57fe5b6001900381819060005260206000209060020201600080820160009055600182016000905550509055866001016000878152602001908152602001600020600090556001945050505050613550565b60009150505b92915050565b600080836001016000848152602001908152602001600020541415905092915050565b6060824710156135d4576040517f08c379a00000000000000000000000000000000000000000000000000000000081526004018080602001828103825260268152602001806139b26026913960400191505060405180910390fd5b6135dd85613412565b61364f576040517f08c379a000000000000000000000000000000000000000000000000000000000815260040180806020018281038252601d8152602001807f416464726573733a2063616c6c20746f206e6f6e2d636f6e747261637400000081525060200191505060405180910390fd5b600060608673ffffffffffffffffffffffffffffffffffffffff1685876040518082805190602001908083835b6020831061369f578051825260208201915060208101905060208303925061367c565b6001836020036101000a03801982511681845116808217855250505050505090500191505060006040518083038185875af1925050503d8060008114613701576040519150601f19603f3d011682016040523d82523d6000602084013e613706565b606091505b5091509150613716828286613722565b92505050949350505050565b60608315613732578290506137e7565b6000835111156137455782518084602001fd5b816040517f08c379a00000000000000000000000000000000000000000000000000000000081526004018080602001828103825283818151815260200191508051906020019080838360005b838110156137ac578082015181840152602081019050613791565b50505050905090810190601f1680156137d95780820380516001836020036101000a031916815260200191505b509250505060405180910390fd5b9392505050565b828054600181600116156101000203166002900490600052602060002090601f016020900481019282601f1061382f57805160ff191683800117855561385d565b8280016001018555821561385d579182015b8281111561385c578251825591602001919060010190613841565b5b50905061386a9190613936565b5090565b828054600181600116156101000203166002900490600052602060002090601f016020900481019282601f106138af57805160ff19168380011785556138dd565b828001600101855582156138dd579182015b828111156138dc5782518255916020019190600101906138c1565b5b5090506138ea9190613936565b5090565b50805460018160011615610100020316600290046000825580601f106139145750613933565b601f0160209004906000526020600020908101906139329190613936565b5b50565b61395891905b8082111561395457600081600090555060010161393c565b5090565b9056fe4552433732313a207472616e7366657220746f206e6f6e20455243373231526563656976657220696d706c656d656e7465724552433732313a207472616e7366657220746f20746865207a65726f2061646472657373416464726573733a20696e73756666696369656e742062616c616e636520666f722063616c6c4552433732313a206f70657261746f7220717565727920666f72206e6f6e6578697374656e7420746f6b656e4552433732313a20617070726f76652063616c6c6572206973206e6f74206f776e6572206e6f7220617070726f76656420666f7220616c6c4552433732313a2062616c616e636520717565727920666f7220746865207a65726f20616464726573734552433732313a206f776e657220717565727920666f72206e6f6e6578697374656e7420746f6b656e456e756d657261626c654d61703a20696e646578206f7574206f6620626f756e64734552433732313a20617070726f76656420717565727920666f72206e6f6e6578697374656e7420746f6b656e4552433732313a207472616e73666572206f6620746f6b656e2074686174206973206e6f74206f776e4552433732314d657461646174613a2055524920717565727920666f72206e6f6e6578697374656e7420746f6b656e4552433732313a20617070726f76616c20746f2063757272656e74206f776e65724552433732313a207472616e736665722063616c6c6572206973206e6f74206f776e6572206e6f7220617070726f766564a26469706673582212205b9f230bff62bc15eacfae2a6ba0b576976225cf4f14c8da22ba48cfe78b7db064736f6c63430006020033",
  "source": "pragma solidity ^0.6.0;\r\nimport \"@openzeppelin/contracts/token/ERC721/ERC721.sol\";\r\nimport \"./IExerciceSolution.sol\";\r\n\r\n\r\ncontract ExerciceSolution is ERC721, IExerciceSolution\r\n{\r\n    constructor() ERC721(\"AlNft\", \"AFT\") public {\r\n        ERC721._mint(0x04a02eb067D6CDC7e4f4C1b112456C94EC38Dd40, 0);\r\n        ERC721._mint(0x40aDC5976f6ae451Dbf9a390d31c7ffB5366b229, 1);\r\n\r\n        getOwnerByIndex[address(0x04a02eb067D6CDC7e4f4C1b112456C94EC38Dd40)][0] = 0; \r\n        getOwnerByIndex[address(0x40aDC5976f6ae451Dbf9a390d31c7ffB5366b229)][0] = 1;\r\n        \r\n    }\r\n\r\n    mapping(address => bool) public allowBreeder;\r\n    mapping(address=>mapping(uint=>uint)) getOwnerByIndex;\r\n    // mapping(uint => address) public idToOwner;\r\n\r\n    struct Animal {\r\n        uint sex;\r\n        uint legs;\r\n        bool wings;\r\n        string name;\r\n    }\r\n\r\n    mapping(uint => Animal) public animals;\r\n\r\n\t// Breeding function\r\n\tfunction isBreeder(address account) external override returns (bool) {\r\n        allowBreeder[account] = true;\r\n        return allowBreeder[account];\r\n    }\r\n\r\n\tfunction registrationPrice() external override returns (uint256) {\r\n        return 1;\r\n    }\r\n\r\n\tfunction registerMeAsBreeder() external override payable {\r\n        require(msg.value == 1);\r\n        allowBreeder[msg.sender] = true;\r\n    }\r\n\r\n\tfunction declareAnimal(uint sex, uint legs, bool wings, string calldata name) external override returns (uint256) {\r\n        require(allowBreeder[msg.sender] == true);\r\n        uint id = totalSupply() + 1;\r\n        animals[id] = Animal(sex, legs, wings, name);\r\n        _mint(msg.sender, id);\r\n        return id;\r\n    }\r\n\r\n\tfunction getAnimalCharacteristics(uint animalNumber) external override returns (string memory _name, bool _wings, uint _legs, uint _sex) {\r\n        _name = animals[animalNumber].name;\r\n        _wings = animals[animalNumber].wings;\r\n        _legs = animals[animalNumber].legs;\r\n        _sex = animals[animalNumber].sex;\r\n        return(_name, _wings, _legs, _sex);\r\n    }\r\n\r\n\tfunction declareDeadAnimal(uint animalNumber) external override {\r\n        // require(allowBreeder[msg.sender] == true);\r\n        require(ownerOf(animalNumber) == msg.sender);\r\n        _burn(animalNumber);\r\n        animals[animalNumber].name = \"\";\r\n        animals[animalNumber].wings = false;\r\n        animals[animalNumber].legs = 0;\r\n        animals[animalNumber].sex = 0;\r\n    }\r\n\r\n\r\n\tfunction tokenOfOwnerByIndex(address owner, uint256 index) public override(ERC721, IExerciceSolution) view returns (uint256) {\r\n        return getOwnerByIndex[owner][index];\r\n    }\r\n\r\n\t// Selling functions\r\n\tfunction isAnimalForSale(uint animalNumber) external override view returns (bool) {\r\n        return true;\r\n    }\r\n\r\n\tfunction animalPrice(uint animalNumber) external override view returns (uint256) {\r\n        return 1;\r\n    }\r\n\r\n\tfunction buyAnimal(uint animalNumber) external override payable {\r\n\r\n    }\r\n\r\n\tfunction offerForSale(uint animalNumber, uint price) external override {\r\n\r\n    }\r\n\r\n\t// Reproduction functions\r\n\r\n\tfunction declareAnimalWithParents(uint sex, uint legs, bool wings, string calldata name, uint parent1, uint parent2) external override returns (uint256) {\r\n        return 1;\r\n    }\r\n\r\n\tfunction getParents(uint animalNumber) external override returns (uint256, uint256) {\r\n        return (1, 1);\r\n    }\r\n\r\n\tfunction canReproduce(uint animalNumber) external override returns (bool) {\r\n        return true;\r\n    }\r\n\r\n\tfunction reproductionPrice(uint animalNumber) external override view returns (uint256) {\r\n        return 1;\r\n    }\r\n\r\n\tfunction offerForReproduction(uint animalNumber, uint priceOfReproduction) external override returns (uint256) {\r\n        return 1;\r\n    }\r\n\r\n\tfunction authorizedBreederToReproduce(uint animalNumber) external override returns (address) {\r\n        address newAddress;\r\n        return newAddress;\r\n    }\r\n\r\n\tfunction payForReproduction(uint animalNumber) external override payable {\r\n\r\n    }\r\n}\r\n",
  "sourcePath": "C:\\Users\\alexa\\Documents\\ESILV\\A4\\BlockchainProg\\erc721-101-1\\contracts\\ExerciceSolution.sol",
  "compiler": {
    "name": "solc",
    "version": "0.6.2+commit.bacdbe57.Emscripten.clang"
  },
  "schemaVersion": "3.4.11",
  "updatedAt": "2022-12-03T22:01:38.845Z",
  "networkType": "ethereum",
  "devdoc": {
    "methods": {
      "approve(address,uint256)": {
        "details": "See {IERC721-approve}."
      },
      "balanceOf(address)": {
        "details": "See {IERC721-balanceOf}."
      },
      "baseURI()": {
        "details": "Returns the base URI set via {_setBaseURI}. This will be automatically added as a prefix in {tokenURI} to each token's URI, or to the token ID if no specific URI is set for that token ID."
      },
      "getApproved(uint256)": {
        "details": "See {IERC721-getApproved}."
      },
      "isApprovedForAll(address,address)": {
        "details": "See {IERC721-isApprovedForAll}."
      },
      "name()": {
        "details": "See {IERC721Metadata-name}."
      },
      "ownerOf(uint256)": {
        "details": "See {IERC721-ownerOf}."
      },
      "safeTransferFrom(address,address,uint256)": {
        "details": "See {IERC721-safeTransferFrom}."
      },
      "safeTransferFrom(address,address,uint256,bytes)": {
        "details": "See {IERC721-safeTransferFrom}."
      },
      "setApprovalForAll(address,bool)": {
        "details": "See {IERC721-setApprovalForAll}."
      },
      "supportsInterface(bytes4)": {
        "details": "See {IERC165-supportsInterface}.     * Time complexity O(1), guaranteed to always use less than 30 000 gas."
      },
      "symbol()": {
        "details": "See {IERC721Metadata-symbol}."
      },
      "tokenByIndex(uint256)": {
        "details": "See {IERC721Enumerable-tokenByIndex}."
      },
      "tokenURI(uint256)": {
        "details": "See {IERC721Metadata-tokenURI}."
      },
      "totalSupply()": {
        "details": "See {IERC721Enumerable-totalSupply}."
      },
      "transferFrom(address,address,uint256)": {
        "details": "See {IERC721-transferFrom}."
      }
    }
  },
  "userdoc": {
    "methods": {}
  }
}